:100000000C9462000C948A000C948A000C948A0070
:100010000C948A000C948A000C948A000C948A0038
:100020000C948A000C948A000C948A000C948A0028
:100030000C948A000C948A000C948A000C948A0018
:100040000C9465020C948A000C948A000C948A002B
:100050000C948A000C948A000C948A000C948A00F8
:100060000C948A000C948A000000000024002700F1
:100070002A0000000000250028002B0000000000DE
:1000800023002600290004040404040404040202DA
:100090000202020203030303030301020408102007
:1000A0004080010204081020010204081020000012
:1000B0000008000201000003040700000000000027
:1000C0000000150C11241FBECFEFD8E0DEBFCDBF5E
:1000D00011E0A0E0B1E0EEE2FEE102C005900D9279
:1000E000AA3BB107D9F722E0AAEBB1E001C01D920B
:1000F000A433B207E1F710E0C2E6D0E004C02197D4
:10010000FE010E940A0FC136D107C9F70E944806B6
:100110000C94150F0C940000CF92DF92EF92FF9297
:100120000F931F93CF93DF936C017A018B01C0E093
:10013000D0E0CE15DF0581F0D8016D918D01D6019B
:10014000ED91FC910190F081E02DC6010995892B7C
:1001500011F02196EECF7E01C701DF91CF911F9163
:100160000F91FF90EF90DF90CF900895089580E079
:1001700090E00895CF93DF93EC0160E08E810E94C0
:10018000780561E08E810E94780560E08E810E9492
:1001900078058BE891E00197F1F7DF91CF91089511
:1001A000FC0181850E944F0521E0892B09F420E0A4
:1001B000822F08950E94100F8CEF91E00C94F803A9
:1001C0008AE092E00C94F80386E292E00C94F80343
:1001D00088E192E00C94F80386E292E00E94A30387
:1001E00088E192E00E94A3038AE092E00E94A303C8
:1001F0008CEF91E00C94A303833081F028F48130DC
:1002000099F08230A1F008958730A9F08830B9F0D4
:100210008430D1F4809180008F7D03C08091800074
:100220008F7780938000089584B58F7702C084B55E
:100230008F7D84BD08958091B0008F7703C0809139
:10024000B0008F7D8093B0000895CF93DF9390E04E
:10025000FC01E656FF4F2491FC01EA57FF4F8491C1
:10026000882361F190E0880F991FFC01E859FF4F46
:10027000C591D491FC01EE58FF4FA591B491611145
:1002800009C09FB7F8948881209582238883EC91D8
:100290002E230BC0623061F49FB7F8948881322F0F
:1002A000309583238883EC912E2B2C939FBF06C01F
:1002B0008FB7F894E8812E2B28838FBFDF91CF91E1
:1002C00008951F93CF93DF93182FEB0161E00E94F5
:1002D0002501209711F460E004C0CF3FD10539F427
:1002E00061E0812FDF91CF911F910C947805E12F70
:1002F000F0E0E255FF4FE491E330F9F048F4E130EB
:10030000B9F0E230A1F584B5806284BDC8BD34C0C7
:10031000E730E9F0E83019F1E43049F580918000E8
:10032000806280938000D0938B00C0938A0024C0A9
:1003300084B5806884BDC7BD1FC08091800080687F
:1003400080938000D0938900C093880015C080916D
:10035000B00080688093B000C093B3000DC080915E
:10036000B00080628093B000C093B40005C0C03874
:10037000D1050CF0B5CFAFCFDF91CF911F9108958C
:10038000862F642F0C9425013FB7F8948091E001EB
:100390009091E101A091E201B091E30126B5A89B03
:1003A00005C02F3F19F00196A11DB11D3FBFBA2F07
:1003B000A92F982F8827820F911DA11DB11DBC0167
:1003C000CD0142E0660F771F881F991F4A95D1F72C
:1003D00008952FB7F8946091DC017091DD01809150
:1003E000DE019091DF012FBF0895AF92BF92CF92AF
:1003F000DF92EF92FF920F931F93CF93DF9387E0EB
:100400000E944F05019709F042C00E94E901DC01FA
:10041000CB019C01AD0160E070E080E090E0A09035
:10042000BA01B090BB01C090BC01D090BD01E0907A
:10043000BE01F090BF010091C0011091C1010E9466
:10044000010F233F314041055105610571058105CB
:10045000910581F178F10E94E901DC01CB018093E3
:10046000BA019093BB01A093BC01B093BD0110925F
:10047000BE011092BF011092C0011092C10180E133
:100480000E944F0561E0892B41F060E006C087E0E3
:100490000E944F05892B71F461E080E1DF91CF91DB
:1004A0001F910F91FF90EF90DF90CF90BF90AF9092
:1004B0000C947805DF91CF911F910F91FF90EF90F1
:1004C000DF90CF90BF90AF9008951F920F920FB61C
:1004D0000F9211242F933F938F939F93AF93BF93CA
:1004E0008091DC019091DD01A091DE01B091DF01EE
:1004F0003091DB0123E0230F2D3720F40196A11D5D
:10050000B11D05C026E8230F0296A11DB11D209341
:10051000DB018093DC019093DD01A093DE01B093B9
:10052000DF018091E0019091E101A091E201B091A1
:10053000E3010196A11DB11D8093E0019093E101BB
:10054000A093E201B093E301BF91AF919F918F918E
:100550003F912F910F900FBE0F901F901895CF9243
:10056000DF92EF92FF920F931F93CF93DF936C0173
:100570007C0187E0E80EF11CC0E0D0E0062F10E01F
:10058000B8010C2E02C0759567950A94E2F7617068
:10059000F70181917F010E9478052196C430D10531
:1005A00079F7C601DF91CF911F910F91FF90EF90E6
:1005B000DF90CF900C94BA00CF92DF92EF92FF922F
:1005C0000F931F93CF93DF93EC01F62E642F8C8152
:1005D0000E9478058D818F3F19F060E00E947805B8
:1005E0008F850F2D10E084FF25C06E0187E0C80EB7
:1005F000D11CE12CF12CB8010E2C02C07595679529
:100600000A94E2F76170F60181916F010E9478050A
:10061000FFEFEF1AFF0A88E0E816F10461F7CE0158
:10062000DF91CF911F910F91FF90EF90DF90CF90CE
:100630000C94BA00B80184E0759567958A95E1F746
:10064000CE010E94AF026F2DCE01DF91CF911F919D
:100650000F91FF90EF90DF90CF900C94AF0241E0AC
:100660000E94DC0281E090E0089540E0682F84EE73
:1006700091E00C94DC02009769F0FC0101900020ED
:10068000E9F73197AF01481B590BBC0184EE91E0AB
:100690000C948C0080E090E008958F929F92AF922E
:1006A000BF920F931F93CF93DF93CDB7DEB7A19780
:1006B0000FB6F894DEBF0FBECDBF19A2423008F4CA
:1006C0004AE08E010F5D1F4F842E912CA12CB12C7E
:1006D000A50194010E94860CE62FB901CA010150C0
:1006E0001109EA3014F4E05D01C0E95CD801EC9333
:1006F000232B242B252B61F7C8010E943B03A196D5
:100700000FB6F894DEBF0FBECDBFDF91CF911F9122
:100710000F91BF90AF909F908F900895CF93DF93EC
:10072000EC01698718860E94D000882319F088851B
:10073000836088870E94E9016A837B838C839D8321
:10074000DF91CF910895CF92DF92EF92FF921F93A6
:10075000CF93DF93EC0188858B7F8887CE010E9441
:10076000D000182F888586958170181759F00E943F
:10077000E9016A837B838C839D83988582E0892746
:1007800088872AC00E94E901CA80DB80EC80FD8056
:10079000AB01BC014C195D096E097F098E819F81F7
:1007A000A0E0B0E0481759076A077B07A8F08885E2
:1007B0008170181789F00E94E9016A837B838C831A
:1007C0009D83988581E08927846088870E94E9015C
:1007D0006A877B878C879D87888582FB882780F93D
:1007E000DF91CF911F91FF90EF90DF90CF90089510
:1007F000FC01808580FD04C082FB882780F9089574
:1008000080E0089581E00E9435038BE39FE101972A
:10081000F1F708950C943B03643008F063E0909185
:10082000F701691710F06FEF690FE62FF0E0EC5158
:10083000FE4F9489890F80680C9435038F929F92A4
:10084000AF92BF92CF92DF92EF92FF920E94C401CB
:100850004B015C0180E1C82E87E2D82EE12CF12CFF
:100860000E94C401DC01CB0188199909AA09BB09BE
:10087000883E9340A105B10598F321E0C21AD10842
:10088000E108F10888EE880E83E0981EA11CB11CD7
:10089000C114D104E104F10419F7FF90EF90DF9047
:1008A000CF90BF90AF909F908F9008958F929F921E
:1008B000AF92BF92CF92DF92EF92FF920F931F936E
:1008C000CF93DF936B017C01142F9B01AC010E943D
:1008D000F50E882319F08DEA91E027C046015701F3
:1008E000E894B7F82FEF3FEF4FE75FE7C501B4019A
:1008F0000E94F50E81110DC02FEF3FEF4FE75FE72C
:10090000C501B4010E94240D18161CF481EB91E07E
:100910000CC02FEF3FEF4FE75FE4C701B6010E9425
:10092000830E181684F485EB91E0DF91CF911F912F
:100930000F91FF90EF90DF90CF90BF90AF909F907E
:100940008F900C943B032FEF3FEF4FE75FECC70115
:10095000B6010E94240D87FDE6CF20E030E0A9011A
:10096000C701B6010E94240D87FF0DC041E06DE272
:1009700084EE91E00E94DC02F7FAF094F7F8F0942C
:10098000C1E0D0E002C0C0E0D0E000E060E070E094
:1009900080E09FE3101741F020E030E040E251E4B6
:1009A0000E94290D0F5FF6CFA70196010E94B80C97
:1009B0006B017C010E94A20D4B015C014AE00E9488
:1009C0004D03C80FD91F1123B9F1C501B4010E940D
:1009D000D10D9B01AC01C701B6010E94B70C6B01A0
:1009E0007C0141E06EE284EE91E00E94DC022196FF
:1009F00020E030E040E251E4C701B6010E94880ED9
:100A00004B015C010E94A20D6B01E12CF12C4AE02C
:100A1000C701B6010E944D03C80FD91FC701B60117
:100A20000E94D10D9B01AC01C501B4010E94B70C1D
:100A30006B017C011150E1F6CE01DF91CF911F9146
:100A40000F91FF90EF90DF90CF90BF90AF909F906D
:100A50008F900895CF92DF92EF92FF9297FF18C088
:100A60006B017C0141E06DE284EE91E00E94DC02CA
:100A700066277727CB016C197D098E099F094AE00B
:100A80000E944D030196FF90EF90DF90CF90089564
:100A90004AE0FF90EF90DF90CF900C944D03CF93FE
:100AA000DF93282F30E0F901E255FF4F8491F901DF
:100AB000E656FF4FD491F901EA57FF4FC491CC237A
:100AC00091F081110E94FC00EC2FF0E0EE0FFF1F6F
:100AD000E458FF4FA591B491EC91ED2381E090E0B3
:100AE00021F480E002C080E090E0DF91CF91089592
:100AF0001F93CF93DF93282F30E0F901E255FF4F8A
:100B00008491F901E656FF4FD491F901EA57FF4F5E
:100B1000C491CC23C1F0162F81110E94FC00EC2F50
:100B2000F0E0EE0FFF1FEE58FF4FA591B4919FB775
:100B3000F894111104C08C91D095D82302C0EC9187
:100B4000DE2BDC939FBFDF91CF911F910895CF9350
:100B5000DF93823028F09091F30198609093F30135
:100B60008093F7011092F80180E48093F90180E10D
:100B70008093FA0180E58093FB0161E08091E801B8
:100B80000E9425018091E9018F3F19F061E00E94E8
:100B9000250161E08091EA010E942501C4EED1E0C7
:100BA0009E01245E31408091F30184FD03C084E006
:100BB00090E002C088E090E02196281739072CF4D5
:100BC00061E08E810E942501EBCF8BE39DE00197D0
:100BD000F1F760E08091E8010E94780560E0809183
:100BE000EA010E9478058091E9018F3F19F060E0E9
:100BF0000E9478058091F30184FD20C063E084EEBB
:100C000091E00E94AF02CBE4D6E4CE010197F1F768
:100C100063E084EE91E00E94AF022197F1F763E078
:100C200084EE91E00E94AF0283E592E00197F1F734
:100C300062E084EE91E00E94AF0215C080620E94E3
:100C400035038BE496E40197F1F78091F30180621C
:100C50000E94350383E592E00197F1F78091F3015B
:100C600080620E9435038091F30180620E94350307
:100C700084E08093F4018CE00E9435030E9402041A
:100C800082E08093F50186E0DF91CF910C943503EB
:100C9000789484B5826084BD84B5816084BD85B557
:100CA000826085BD85B5816085BD80916E00816063
:100CB00080936E0010928100809181008260809309
:100CC000810080918100816080938100809180000B
:100CD0008160809380008091B10084608093B10036
:100CE0008091B00081608093B00080917A00846030
:100CF00080937A0080917A00826080937A0080915C
:100D00007A00816080937A0080917A008068809375
:100D10007A001092C10060E088E00E94250160E046
:100D200089E00E94250160E08AE00E94250160E0E0
:100D30008DE00E9425016DE070E086E292E00E9465
:100D40008E0368E070E088E192E00E948E0369E023
:100D500070E08AE092E00E948E036AE070E08CEF1F
:100D600091E00E948E0389E190E090932D028093A0
:100D70002C0290931F0280931E0290931102809385
:100D80001002909303028093020280E090E0A8ECAE
:100D9000B1E48093D0019093D101A093D201B0939C
:100DA000D30182E390E09093D5018093D401909396
:100DB000D9018093D80161E085E00E94250161E0BE
:100DC00086E00E94250161E087E00E94250160E045
:100DD00070E085E00E94610160E070E086E00E94C2
:100DE000610160E087E00E94780582E00E94A7052B
:100DF00060E08FE00E94250161E080E10E94250112
:100E000024E6422E512C612C712C04E610E08091D6
:100E10000401909105018230910509F419C254F43E
:100E20000097A1F0019709F090C40E940204C2E06B
:100E3000D0E006C28430910509F469C30CF487C27E
:100E4000059709F082C40E94020472C40E94020441
:100E5000C1E0D0E093E2292E312C809104019091E1
:100E60000501892B09F071C40E94EC000E94F50174
:100E700060E080E00E940C048AE191E00E940A0494
:100E80006091D0017091D1018091D2019091D301F4
:100E900041E00E94560460E088E00E940C048FE16B
:100EA00091E00E940A0484E6E82EF12C812C912C1A
:100EB000540181E480937C0080917A008064809367
:100EC0007A0080917A0086FDFCCF60917800809155
:100ED000790070E0782B072E000C880B990B0E948C
:100EE000D30D20E030E040EA50E40E94880E20E07C
:100EF00030EC4FE754E40E94290D2AE037ED43E23D
:100F00005CE30E94290D9B01AC01C501B4010E9464
:100F1000B80C4B015C0191E0E91AF10851F620E0B0
:100F200030E048EC52E4C501B4010E94290D609301
:100F3000CC017093CD018093CE019093CF0161E0FD
:100F400080E00E940C0481E291E00E940A0460911A
:100F5000CC017091CD018091CE019091CF0141E003
:100F60000E94560461E088E00E940C048FE191E049
:100F70000E940A0487E00E944F05892B29F41092F1
:100F8000CB011092CA0104C0D093CB01C093CA0117
:100F9000C090D001D090D101E090D201F090D30167
:100FA0008090CC019090CD01A090CE01B090CF0167
:100FB000A5019401C701B6010E94B70C2091000160
:100FC0003091010140910201509103010E94880E6D
:100FD0000E949B0D7093C5016093C401A50194010B
:100FE000C701B6010E94830E18162CF4D093C901D4
:100FF000C093C80111C0A5019401C701B6010E94A8
:10100000240D1092C9011092C80187FF05C0D0932A
:10101000C701C093C60104C01092C7011092C60157
:101020008091CA019091CB01009779F460E08BE048
:101030000E940C0486E291E00E940A0461E08CE0C8
:101040000E940C048DE291E01EC0019709F093C04C
:101050008091C8019091C901009709F07EC38091E9
:10106000C6019091C701009789F460E08BE00E946F
:101070000C0486E291E00E940A0461E08CE00E9488
:101080000C0481E391E00E940A0475C0019709F005
:1010900072C060E08AE00E940C0480E491E00E944B
:1010A0000A0461E08CE00E940C0481E391E00E945C
:1010B0000A048091DA0181113EC06091C4017091EF
:1010C000C5016833710594F488E390E09093C501FD
:1010D0008093C40168E370E086E00E94610160E0F3
:1010E00089E00E940C0487E491E01FC06F3F710506
:1010F00099F094F08FEF90E09093C5018093C40134
:101100006FEF70E086E00E94610160E089E00E947C
:101110000C0489E491E009C086E00E94610160E06E
:1011200089E00E940C048FE291E00E940A0460E0D2
:1011300070E085E01EC0A091D801B091D90127ECE4
:1011400030E00E94FA0EA30192010E94670C69012F
:101150007A0198E3C90ED11CE11CF11CD092C301A5
:10116000C092C20160E070E085E00E946101B601BA
:1011700086E00E9461010E94E800882309F46DCE98
:10118000D0930501C093040168CE0E94F50160E090
:1011900080E00E940C048BE491E00E940A0461E06C
:1011A00080E00E940C048AE191E00E940A046091B0
:1011B000D0017091D1018091D2019091D30141E091
:1011C0000E9456040E94EC000E94E0008823B1F0C7
:1011D00020E030E040E85FE36091D0017091D10100
:1011E0008091D2019091D3010E94B80C6093D001FC
:1011F0007093D1018093D2019093D3010E94DC00BF
:101200008823B1F020E030E040E85FE36091D00156
:101210007091D1018091D2019091D3010E94B70CBD
:101220006093D0017093D1018093D2019093D30148
:101230000E94E800882321F0D0930501C0930401A7
:101240008091040190910501019709F49ECF7DC220
:101250000E9402048091040190910501029709F017
:1012600074C20E94F50160E080E00E940C0489E5F0
:1012700091E00E940A0461E080E00E940C0488E68C
:1012800091E00E940A046091000170910101809137
:1012900002019091030141E00E9456040E94EC007B
:1012A0000E94E0008823B1F020E030E040E85FE3F6
:1012B0006091000170910101809102019091030100
:1012C0000E94B80C609300017093010180930201A9
:1012D000909303010E94DC00882369F120E030E054
:1012E00040E85FE36091000170910101809102018B
:1012F000909103010E94B70C6B017C0120E030E06B
:1013000040E85FE30E94240D87FD09C0C092000100
:10131000D0920101E0920201F09203010CC080E042
:1013200090E0A0E8BFE38093000190930101A093B7
:101330000201B09303010E94E800882309F48ACFD8
:1013400083E090E0909305018093040183CF0E9495
:101350000204C4E0D0E0809104019091050103975C
:1013600009F0F3C10E94F50160E082E00E940C04E4
:101370008DE691E00E940A0461E080E00E940C0486
:1013800089E791E00E940A040E94EC008091D60156
:1013900061E08823E1F086E00E940C0481E391E0A3
:1013A0000E940A0461E08AE00E940C046091D4016A
:1013B0007091D501072E000C880B990B0E942A050D
:1013C00061E08DE00E940C0480E891E00DC086E0B1
:1013D0000E940C048DE291E00E940A0461E08AE020
:1013E0000E940C0482E891E00E940A040E94E0003E
:1013F000882319F081E08093D6010E94DC008111DE
:101400001092D6010E94E400882309F476C061E0BE
:101410008FE00E940C0487E891E00E940A0480910A
:10142000D601882309F469C081E08093D7018091B7
:10143000D701882309F461C00E94F5010E94EC00E5
:101440000E94E0008823E1F08091D4019091D501C1
:1014500005969093D5018093D40161E08AE00E94C3
:101460000C0483E891E00E940A048091D4019091D9
:10147000D5018436910524F01093D5010093D40151
:101480000E94DC008823D9F08091D4019091D5018D
:1014900005979093D5018093D40161E08AE00E9482
:1014A0000C0483E891E00E940A048091D401909199
:1014B000D50197FF04C01092D5011092D40161E0CC
:1014C0008AE00E940C046091D4017091D501072E2E
:1014D000000C880B990B0E942A050E94E4008823C7
:1014E00009F4A5CF61E08FE00E940C0485E891E04B
:1014F0000E940A041092D7019ACF0E94E800882324
:1015000009F429CFD0930501C093040124CF0E9490
:101510000204C5E0D0E08091040190910501049798
:1015200009F013C10E94F50160E082E00E940C0402
:101530008DE691E00E940A0461E080E00E940C04C4
:1015400089E891E00E940A040E94EC008091DA018F
:1015500061E08823E1F086E00E940C0481E391E0E1
:101560000E940A0461E08AE00E940C046091D801A4
:101570007091D901072E000C880B990B0E942A0547
:1015800061E08DE00E940C0480E891E00DC086E0EF
:101590000E940C048DE291E00E940A0461E08AE05E
:1015A0000E940C0482E891E00E940A040E94E0007C
:1015B000882319F081E08093DA010E94DC00811118
:1015C0001092DA010E94E400882309F476C061E0F9
:1015D0008FE00E940C0487E891E00E940A04809149
:1015E000DA01882309F469C081E08093D7018091F2
:1015F000D701882309F461C00E94F5010E94EC0024
:101600000E94E0008823E1F08091D8019091D901F7
:1016100005969093D9018093D80161E08AE00E94F9
:101620000C0483E891E00E940A048091D801909113
:10163000D9018436910524F01093D9010093D80183
:101640000E94DC008823D9F08091D8019091D901C3
:1016500005979093D9018093D80161E08AE00E94B8
:101660000C0483E891E00E940A048091D8019091D3
:10167000D90197FF04C01092D9011092D80161E0FE
:101680008AE00E940C046091D8017091D901072E64
:10169000000C880B990B0E942A050E94E400882305
:1016A00009F4A5CF61E08FE00E940C0485E891E089
:1016B0000E940A041092D7019ACF0E94E800882362
:1016C00009F429CFD0930501C093040124CF0E94CF
:1016D000F50160E082E00E940C048FE891E00E9436
:1016E0000A040E94EC0087E00E944F0561E0019728
:1016F00031F584E00E940C048DE991E00E940A0417
:101700000E94E000882321F061E087E00E947805D4
:101710000E94DC00882321F060E087E00E947805C9
:101720000E94E800882321F0109205011092040124
:101730008091040190910501059749F206C084E06B
:101740000E940C0485EA91E0D9CF80E090E0892BDB
:1017500009F45DCB0E9400005ACB019709F00BCD34
:101760008091C6019091C701892B09F004CD60E0FA
:101770008AE00E940C0485E391E00E940A0461E083
:101780008CE00E940C0481E391E00E940A048091A5
:10179000D601811139C06091C4017091C50177FFF4
:1017A00010C01092C5011092C40160E070E085E0A5
:1017B0000E94610160E089E00E940C048CE391E0EA
:1017C0001CC06432710584F03092C5012092C401BE
:1017D00063E270E085E00E94610160E089E00E94C0
:1017E0000C048EE391E009C085E00E94610160E095
:1017F00089E00E940C048FE191E00E940A040E949B
:101800001E0460E070E0B4CCA091D401B091D50189
:1018100023E230E00E94FA0EA30192010E94670CBD
:10182000B90185E00E946101ECCFE4EEF1E01382A2
:1018300012828AE091E0918380838CE084838FEF31
:1018400085838BE0868384E0878383E0808782E0E2
:10185000818781E08287138614861586168617860F
:101860000E94A705E6E2F2E026E131E03183208321
:1018700012821382148215828AE090E09783868315
:1018800010861186E8E1F2E0318320831282138210
:10189000148215829783868310861186EAE0F2E02F
:1018A0003183208312821382148215829783868368
:1018B00010861186ECEFF1E03183208312821382CF
:1018C0001482158297838683108611860895052ECB
:1018D00097FB1EF400940E947E0C57FD07D00E94D7
:1018E000860C07FC03D04EF40C947E0C509540956A
:1018F000309521953F4F4F4F5F4F089590958095BC
:10190000709561957F4F8F4F9F4F0895A1E21A2EDA
:10191000AA1BBB1BFD010DC0AA1FBB1FEE1FFF1F93
:10192000A217B307E407F50720F0A21BB30BE40BE3
:10193000F50B661F771F881F991F1A9469F760952A
:101940007095809590959B01AC01BD01CF010895E4
:10195000A29FB001B39FC001A39F700D811D1124F0
:10196000911DB29F700D811D1124911D0895505835
:10197000BB27AA270E94CF0C0C94490E0E943B0E55
:1019800038F00E94420E20F039F49F3F19F426F4FB
:101990000C94380E0EF4E095E7FB0C94320EE92F10
:1019A0000E945A0E58F3BA17620773078407950707
:1019B00020F079F4A6F50C947C0E0EF4E0950B2E35
:1019C000BA2FA02D0B01B90190010C01CA01A00191
:1019D0001124FF27591B99F0593F50F4503E68F1EC
:1019E0001A16F040A22F232F342F4427585FF3CF2D
:1019F000469537952795A795F0405395C9F77EF4FE
:101A00001F16BA0B620B730B840BBAF09150A1F046
:101A1000FF0FBB1F661F771F881FC2F70EC0BA0FCC
:101A2000621F731F841F48F4879577956795B79554
:101A3000F7959E3F08F0B0CF9395880F08F099274F
:101A4000EE0F9795879508950E940E0E08F481E099
:101A500008950E943D0D0C94490E0E94420E58F0CC
:101A60000E943B0E40F029F45F3F29F00C94320EA7
:101A700051110C947D0E0C94380E0E945A0E68F38E
:101A80009923B1F3552391F3951B550BBB27AA2737
:101A900062177307840738F09F5F5F4F220F331F71
:101AA000441FAA1FA9F335D00E2E3AF0E0E832D039
:101AB00091505040E695001CCAF72BD0FE2F29D03C
:101AC000660F771F881FBB1F261737074807AB070E
:101AD000B0E809F0BB0B802DBF01FF2793585F4F83
:101AE0003AF09E3F510578F00C94320E0C947D0E26
:101AF0005F3FE4F3983ED4F3869577956795B79565
:101B0000F7959F5FC9F7880F911D9695879597F96F
:101B10000895E1E0660F771F881FBB1F62177307E8
:101B20008407BA0720F0621B730B840BBA0BEE1FFD
:101B300088F7E09508950E94A20D6894B1110C9465
:101B40007D0E08950E94620E88F09F5798F0B92F7D
:101B50009927B751B0F0E1F0660F771F881F991FE2
:101B60001AF0BA95C9F714C0B13091F00E947C0EFA
:101B7000B1E008950C947C0E672F782F8827B85F0A
:101B800039F0B93FCCF3869577956795B395D9F73A
:101B90003EF490958095709561957F4F8F4F9F4F44
:101BA0000895E89409C097FB3EF490958095709550
:101BB00061957F4F8F4F9F4F9923A9F0F92F96E999
:101BC000BB279395F695879577956795B795F1110E
:101BD000F8CFFAF4BB0F11F460FF1BC06F5F7F4FAB
:101BE0008F4F9F4F16C0882311F096E911C07723BD
:101BF00021F09EE8872F762F05C0662371F096E8C6
:101C0000862F70E060E02AF09A95660F771F881F94
:101C1000DAF7880F9695879597F90895990F000838
:101C2000550FAA0BE0E8FEEF16161706E807F907AE
:101C3000C0F012161306E407F50798F0621B730B49
:101C4000840B950B39F40A2661F0232B242B252BCA
:101C500021F408950A2609F4A140A6958FEF811D6D
:101C6000811D089597F99F6780E870E060E008950E
:101C70009FEF80EC089500240A94161617061806A4
:101C80000906089500240A94121613061406050680
:101C90000895092E0394000C11F4882352F0BB0F11
:101CA00040F4BF2B11F460FF04C06F5F7F4F8F4F74
:101CB0009F4F089557FD9058440F551F59F05F3FAF
:101CC00071F04795880F97FB991F61F09F3F79F05E
:101CD00087950895121613061406551FF2CF4695E0
:101CE000F1DF08C0161617061806991FF1CF869562
:101CF0007105610508940895E894BB276627772746
:101D0000CB0197F908950E940E0E08F48FEF089505
:101D10000E949B0E0C94490E0E943B0E38F00E94CC
:101D2000420E20F0952311F00C94320E0C94380ED4
:101D300011240C947D0E0E945A0E70F3959FC1F3EE
:101D4000950F50E0551F629FF001729FBB27F00D69
:101D5000B11D639FAA27F00DB11DAA1F649F6627BE
:101D6000B00DA11D661F829F2227B00DA11D621F0D
:101D7000739FB00DA11D621F839FA00D611D221FC7
:101D8000749F3327A00D611D231F849F600D211DAB
:101D9000822F762F6A2F11249F5750409AF0F1F02E
:101DA00088234AF0EE0FFF1FBB1F661F771F881F97
:101DB00091505040A9F79E3F510580F00C94320E8F
:101DC0000C947D0E5F3FE4F3983ED4F386957795AF
:101DD0006795B795F795E7959F5FC1F7FE2B880F3D
:101DE000911D9695879597F908950E940E0E880B80
:101DF000990B08950E94A80CB7FF0895821B930BBE
:101E000008952A193B094C095D096E097F09800B69
:101E1000910B0895EE0FFF1F0590F491E02D0994AA
:0E1E200081E090E0F8940C94150FF894FFCF39
:101E2E000000803F0500000000002F038C00B7006B
:101E3E00B60000000000D000C00153503A2000430D
:101E4E000050563A2000447269766572004F46463D
:101E5E00004F4E2000202048656174004100420072
:101E6E00202046616E2000440045004E65772053C9
:101E7E00657420506F696E74004E65772050726FD6
:101E8E00702E204761696E004B703A20004D616ED6
:101E9E0075616C204D6F646500486561743A200071
:101EAE00250020202020003C0046616E3A20004490
:101EBE0072697665722053746174757300456E6134
:101ECE00626C65200044697361626C65006E616EC0
:0A1EDE0000696E66006F7666000072
:00000001FF
